{
  "_format": "hh-sol-artifact-1",
  "contractName": "Item",
  "sourceName": "contracts/Item.sol",
  "abi": [
    {
      "inputs": [
        {
          "internalType": "contract ItemManager",
          "name": "_manager",
          "type": "address"
        },
        {
          "internalType": "uint256",
          "name": "_index",
          "type": "uint256"
        },
        {
          "internalType": "string",
          "name": "_identifier",
          "type": "string"
        },
        {
          "internalType": "uint256",
          "name": "_price",
          "type": "uint256"
        },
        {
          "internalType": "enum State",
          "name": "_state",
          "type": "uint8"
        }
      ],
      "stateMutability": "nonpayable",
      "type": "constructor"
    },
    {
      "inputs": [],
      "name": "identifier",
      "outputs": [
        {
          "internalType": "string",
          "name": "",
          "type": "string"
        }
      ],
      "stateMutability": "view",
      "type": "function"
    },
    {
      "inputs": [],
      "name": "index",
      "outputs": [
        {
          "internalType": "uint256",
          "name": "",
          "type": "uint256"
        }
      ],
      "stateMutability": "view",
      "type": "function"
    },
    {
      "inputs": [],
      "name": "price",
      "outputs": [
        {
          "internalType": "uint256",
          "name": "",
          "type": "uint256"
        }
      ],
      "stateMutability": "view",
      "type": "function"
    },
    {
      "inputs": [
        {
          "internalType": "enum State",
          "name": "_state",
          "type": "uint8"
        }
      ],
      "name": "setState",
      "outputs": [],
      "stateMutability": "nonpayable",
      "type": "function"
    },
    {
      "inputs": [],
      "name": "state",
      "outputs": [
        {
          "internalType": "enum State",
          "name": "",
          "type": "uint8"
        }
      ],
      "stateMutability": "view",
      "type": "function"
    },
    {
      "stateMutability": "payable",
      "type": "receive"
    }
  ],
  "bytecode": "0x60806040523480156200001157600080fd5b5060405162000daf38038062000daf833981810160405281019062000037919062000261565b846000806101000a81548173ffffffffffffffffffffffffffffffffffffffff021916908373ffffffffffffffffffffffffffffffffffffffff16021790555083600181905550826002908051906020019062000096929190620000fa565b508160038190555080600460006101000a81548160ff02191690836002811115620000ea577f4e487b7100000000000000000000000000000000000000000000000000000000600052602160045260246000fd5b0217905550505050505062000503565b8280546200010890620003e3565b90600052602060002090601f0160209004810192826200012c576000855562000178565b82601f106200014757805160ff191683800117855562000178565b8280016001018555821562000178579182015b82811115620001775782518255916020019190600101906200015a565b5b5090506200018791906200018b565b5090565b5b80821115620001a65760008160009055506001016200018c565b5090565b6000620001c1620001bb8462000325565b620002fc565b905082815260208101848484011115620001da57600080fd5b620001e7848285620003ad565b509392505050565b6000815190506200020081620004be565b92915050565b6000815190506200021781620004d8565b92915050565b600082601f8301126200022f57600080fd5b815162000241848260208601620001aa565b91505092915050565b6000815190506200025b81620004e9565b92915050565b600080600080600060a086880312156200027a57600080fd5b60006200028a88828901620001ef565b95505060206200029d888289016200024a565b945050604086015167ffffffffffffffff811115620002bb57600080fd5b620002c9888289016200021d565b9350506060620002dc888289016200024a565b9250506080620002ef8882890162000206565b9150509295509295909350565b6000620003086200031b565b905062000316828262000419565b919050565b6000604051905090565b600067ffffffffffffffff8211156200034357620003426200047e565b5b6200034e82620004ad565b9050602081019050919050565b6000620003688262000383565b9050919050565b60006200037c826200035b565b9050919050565b600073ffffffffffffffffffffffffffffffffffffffff82169050919050565b6000819050919050565b60005b83811015620003cd578082015181840152602081019050620003b0565b83811115620003dd576000848401525b50505050565b60006002820490506001821680620003fc57607f821691505b602082108114156200041357620004126200044f565b5b50919050565b6200042482620004ad565b810181811067ffffffffffffffff821117156200044657620004456200047e565b5b80604052505050565b7f4e487b7100000000000000000000000000000000000000000000000000000000600052602260045260246000fd5b7f4e487b7100000000000000000000000000000000000000000000000000000000600052604160045260246000fd5b6000601f19601f8301169050919050565b620004c9816200036f565b8114620004d557600080fd5b50565b60038110620004e657600080fd5b50565b620004f481620003a3565b81146200050057600080fd5b50565b61089c80620005136000396000f3fe60806040526004361061004e5760003560e01c80632986c0e5146102bf57806356de96db146102ea5780637998a1c414610313578063a035b1fe1461033e578063c19d93fb14610369576102ba565b366102ba573460035414610097576040517f08c379a000000000000000000000000000000000000000000000000000000000815260040161008e90610617565b60405180910390fd5b600060028111156100d1577f4e487b7100000000000000000000000000000000000000000000000000000000600052602160045260246000fd5b600460009054906101000a900460ff166002811115610119577f4e487b7100000000000000000000000000000000000000000000000000000000600052602160045260246000fd5b14610159576040517f08c379a000000000000000000000000000000000000000000000000000000000815260040161015090610637565b60405180910390fd5b60008060009054906101000a900473ffffffffffffffffffffffffffffffffffffffff1673ffffffffffffffffffffffffffffffffffffffff16346001546040516024016101a79190610677565b6040516020818303038152906040527f800fb83f000000000000000000000000000000000000000000000000000000007bffffffffffffffffffffffffffffffffffffffffffffffffffffffff19166020820180517bffffffffffffffffffffffffffffffffffffffffffffffffffffffff838183161783525050505060405161023191906105c3565b60006040518083038185875af1925050503d806000811461026e576040519150601f19603f3d011682016040523d82523d6000602084013e610273565b606091505b50509050806102b7576040517f08c379a00000000000000000000000000000000000000000000000000000000081526004016102ae90610657565b60405180910390fd5b50005b600080fd5b3480156102cb57600080fd5b506102d4610394565b6040516102e19190610677565b60405180910390f35b3480156102f657600080fd5b50610311600480360381019061030c91906104a9565b61039a565b005b34801561031f57600080fd5b506103286103ed565b60405161033591906105f5565b60405180910390f35b34801561034a57600080fd5b5061035361047b565b6040516103609190610677565b60405180910390f35b34801561037557600080fd5b5061037e610481565b60405161038b91906105da565b60405180910390f35b60015481565b80600460006101000a81548160ff021916908360028111156103e5577f4e487b7100000000000000000000000000000000000000000000000000000000600052602160045260246000fd5b021790555050565b600280546103fa90610726565b80601f016020809104026020016040519081016040528092919081815260200182805461042690610726565b80156104735780601f1061044857610100808354040283529160200191610473565b820191906000526020600020905b81548152906001019060200180831161045657829003601f168201915b505050505081565b60035481565b600460009054906101000a900460ff1681565b6000813590506104a381610856565b92915050565b6000602082840312156104bb57600080fd5b60006104c984828501610494565b91505092915050565b60006104dd82610692565b6104e781856106a8565b93506104f78185602086016106f3565b80840191505092915050565b61050c816106e1565b82525050565b600061051d8261069d565b61052781856106b3565b93506105378185602086016106f3565b610540816107b6565b840191505092915050565b6000610558601b836106b3565b9150610563826107c7565b602082019050919050565b600061057b6019836106b3565b9150610586826107f0565b602082019050919050565b600061059e6014836106b3565b91506105a982610819565b602082019050919050565b6105bd816106d7565b82525050565b60006105cf82846104d2565b915081905092915050565b60006020820190506105ef6000830184610503565b92915050565b6000602082019050818103600083015261060f8184610512565b905092915050565b600060208201905081810360008301526106308161054b565b9050919050565b600060208201905081810360008301526106508161056e565b9050919050565b6000602082019050818103600083015261067081610591565b9050919050565b600060208201905061068c60008301846105b4565b92915050565b600081519050919050565b600081519050919050565b600081905092915050565b600082825260208201905092915050565b60008190506106d282610842565b919050565b6000819050919050565b60006106ec826106c4565b9050919050565b60005b838110156107115780820151818401526020810190506106f6565b83811115610720576000848401525b50505050565b6000600282049050600182168061073e57607f821691505b6020821081141561075257610751610787565b5b50919050565b7f4e487b7100000000000000000000000000000000000000000000000000000000600052602160045260246000fd5b7f4e487b7100000000000000000000000000000000000000000000000000000000600052602260045260246000fd5b6000601f19601f8301169050919050565b7f4f6e6c792066756c6c207061796d656e74732061636365707465640000000000600082015250565b7f4974656d206675727468657220696e2074686520636861696e00000000000000600082015250565b7f5472616e73616374696f6e2072656a6563746564000000000000000000000000600082015250565b6003811061085357610852610758565b5b50565b6003811061086357600080fd5b5056fea2646970667358221220805f89213ddd9feb532dce8e0ea7193032ff0de3315cdd9ef35fd877a1eb380564736f6c63430008040033",
  "linkReferences": {},
  "deployedLinkReferences": {}
}